:020000040800F2
:100000006820002045010008DF1F0008DD160008F9
:10001000DD1F00085D0B0008AB3000080000000089
:10002000000000000000000000000000872700081A
:10003000090D0008000000005F240008E528000802
:100040005F0100085F0100085F0100085F01000810
:100050005F0100085F0100085F0100085F01000800
:100060005F0100085F0100085F0100085F010008F0
:100070005F0100085F0100085F0100085F010008E0
:100080005F0100085F0100085F0100085F010008D0
:100090005F0100085F0100085F0100085F010008C0
:1000A0005F010008C92900085F0100085F0100081E
:1000B0002D2A0008A52A00085F0100085F0100083A
:1000C0005F0100085F0100085F0100085F01000890
:1000D0005F010008E52C0008792D0008ED2D0008CF
:1000E0005F0100085F0100085F0100085F01000870
:1000F0005F0100085F0100085F0100085F01000860
:100100005F0100085F0100085F0100085F0100084F
:100110005F0100085F0100085F0100085F0100083F
:100120005F0100085F0100085F0100085F0100082F
:10013000DFF80CD000F04CFB00480047B943000842
:10014000682000200648804706480047FEE7FEE793
:10015000FEE7FEE7FEE7FEE7FEE7FEE7FEE7FEE777
:10016000E92800083101000840EA01039B0703D099
:1001700009E008C9121F08C0042AFAD203E011F8E6
:10018000013B00F8013B521EF9D27047D2B201E0A8
:1001900000F8012B491EFBD270470022F6E710B58C
:1001A00013460A4604461946FFF7F0FF204610BDE5
:1001B00030B505462A460B4612F8010B13F8014BE1
:1001C00008B1A042F8D01CB1002802D06D1CF1E7A4
:1001D000284630BD10B5044604E00B7800F8013B1A
:1001E00003B1491C521EF8D2204610BD421C10F823
:1001F000011B0029FBD1801A704730B5054600204D
:10020000034600E05B1C934205D2EC5CC85C201AFC
:1002100001D1002CF6D130BD70B5064603F078F957
:10022000046805460A220021304600F0A9F82C6037
:1002300070BD30B480EA010202F0004530F00042A7
:1002400021F0004013D090B1C30DD40DC2F31601BC
:10025000C0F31600E41A41F4000140F400027D34BA
:10026000914201D3641C00E04900002C02DA30BC4A
:10027000002070474FF400000023914201D3891AF7
:10028000034340084FEA4101F7D151B1914202D1F5
:100290004FF0004105E002D24FF0010101E06FF0A4
:1002A000010103EBC450284430BC00F0A1B8C10FD9
:1002B00080EAE0700844CA079623002100F0A1B844
:1002C00000F0004220F00040C10DC0F3160040F4E1
:1002D00000007F2901DA00207047962903DCC1F174
:1002E0009601C84001E096398840002AF4D0404287
:1002F000704730B50B46014600202022012409E05A
:1003000021FA02F59D4205D303FA02F5491B04FACE
:1003100002F52844151EA2F10102F1DC30BD2DE9E1
:10032000F05F0546002092469B4688460646814679
:1003300040241BE0284641464746224600F069FA21
:1003400053465A46C01A914110D3114618462246C8
:1003500000F050FA2D1A67EB01084F4622460120A3
:10036000002100F047FA17EB00094E41201EA4F1CE
:100370000104DFDC484631462A464346BDE8F09F8B
:100380002DE9F04791460F4680460446002614F8B2
:10039000015B2DB100F060FA0068405DC007F6D146
:1003A0002B2D02D02D2D18D0641E4A4639462046EA
:1003B00000F056FA27B13968A14201D1C7F8008090
:1003C00071054FF002040BD54042002803DD03F015
:1003D0009FF80460A007BDE8F08746F48066E4E774
:1003E0000028F8DA03F094F804606FF00040F2E7B8
:1003F0000029A8BF7047401C490008BF20F0010039
:10040000704710B4B0FA80FC00FA0CF050EA010416
:1004100004BF10BC704749B1CCF1200421FA04F4A8
:1004200011FA0CF118BF012121430843A3EB0C0181
:10043000CB1D4FEA00614FEA102042BF002010BCE4
:10044000704700EBC35010440029A4BF10BC704794
:10045000401C490008BF20F0010010BC70472DE986
:10046000FE4F804681EA0300C00F0C46009021F049
:10047000004123F00045B8EB0200A94105D24046F7
:10048000214690461C460B46024623F0004010438E
:1004900047D0270DC7F30A00C3F30A510290401A50
:1004A000019040286BDAC3F3130040F4801B0098DE
:1004B000924620B10023D2EB030A63EB0B0B0198A9
:1004C0005946C0F14002504600F094F906460D46E8
:1004D00050465946019A00F0ACF910EB0800614112
:1004E000002487EA115284EAE7731A4340D0009A45
:1004F00062B3019A012A4FEA075215DC001B61EB37
:1005000002014FF0004202EA0752CDE90042001C0E
:1005100041F5801132462B4600F000FA03B0BDE8E9
:10052000F08F40462146F9E7001B61EB0201001CF9
:1005300041F5801300185B412018A2F5001747EB26
:10054000030140EAD570B6196D4111E06D084FEA1C
:10055000360645EAC0754FEA0752001B61EB0201FF
:10056000001C41F5801149084FEA30000019514143
:1005700032462B4603B0BDE8F04F00F0C0B90098FA
:10058000012240000023D0EB020263EBE0730098ED
:1005900021464FEAE074B8EB000061EB0401E9E7A3
:1005A00083F000435BE781F0004158E72DE9FE4FFF
:1005B00081EA030404F0004421F0004100944FF06C
:1005C000000B23F0004350EA01045ED052EA03041A
:1005D0005BD0C3F30A54C1F30A552C44A4F2F3349C
:1005E0000194A0FB0254C1F3130141F48011C3F341
:1005F000130343F4801301FB024400FB034E840AFF
:10060000970A44EA815447EA8357A4FB0768029596
:100610008D0A05FB07854FEA932C04FB0C54270534
:10062000029D4FEA065847EA1637B5EB08056EEB10
:10063000070C870E920E47EA811742EA8312A7FB46
:100640000201B6EB0B0164EB00042B0D43EA0C3303
:100650005E1844EB1C50DA465146E7FB0201C5F335
:1006600013044FEA0B3343EA14534FEA0432019C5C
:1006700043EA0603A4F10C040294009CCDE900B403
:1006800000F04CF903B0BDE8F08F00200146F9E717
:100690002DE9F04D81EA030404F0004B21F0004500
:1006A00014464FF0000A23F0004150EA050220D022
:1006B00054EA01021DD0C5F30A570246C5F31303DD
:1006C000C1F31300C1F30A5640F4801543F48013BC
:1006D000A7EB0608101BD64608F2FD3873EB0500A1
:1006E00002D308F1010801E092185B41B8F1000F54
:1006F00003DA00200146BDE8F08D00204FF48011A0
:10070000064684460EE0171B73EB050705D3121B44
:1007100063EB050306434CEA010C49084FEA30003D
:1007200092185B4150EA0107EDD152EA030012D062
:1007300082EA040083EA0501084305D0101BAB419F
:1007400006D20122002306E000224FF0004302E01F
:100750006FF0010253101AEB06004CEB085110EB3E
:100760000A0041EB0B01BDE8F04D00F0C8B8C1F341
:100770000A52C1F3130140F2FF3341F480119A424F
:1007800002DA00200146704740F233439A42A2F257
:10079000334202DC524200F03CB800F02BB80000BB
:1007A00030B5041E71F1000404DB4FF000444042F8
:1007B00064EB0101141E73F1000405DB1C464FF0CD
:1007C0000043524263EB0403994208BF904230BD9C
:1007D000064C074D06E0E06840F0010394E807008E
:1007E00098471034AC42F6D3FFF7A6FCFC81000812
:1007F0001C820008202A04DB203A00FA02F10020C3
:1008000070479140C2F1200320FA03F3194390404E
:100810007047202A04DB203A21FA02F000217047B9
:1008200021FA02F3D040C2F1200291400843194658
:100830007047202A06DBCB17203A41FA02F043EA40
:10084000E07306E041FA02F3D040C2F12002914089
:100850000843194670470000004870479C7E000816
:100860002DE9F05F82460078002715468B460AF195
:100870000104B946302801D09DB113E014F8010BF2
:100880000127782803D0582801D045B10AE00DB1DE
:10089000102D07D10027102514F8010B02E00825C0
:1008A00000E00A250026B0460EE005FB080005FB27
:1008B00006F1012701EB10461FFA80F8B6F5803FDC
:1008C00000D3B94614F8010B294600F075F800284A
:1008D000EBDABBF1000F05D00FB1641E00E0544607
:1008E000CBF80040B9F1000F06D002F011FE022152
:1008F0000160C81EBDE8F09F48EA0640FAE710B55F
:10090000141E73F1000408DA401C41F10001921832
:100910005B411A4301D120F0010010BD2DE9F04DDB
:1009200092469B4611B1B1FA81F202E0B0FA80F230
:1009300020329046FFF75EFF04460F4640EA0A0069
:1009400041EA0B0153465A46084313D0114653EA75
:10095000010019D0C8F140025046FFF75AFF054682
:100960000E46504659464246FFF744FF084305D01D
:10097000012004E020463946BDE8F08D0020054303
:1009800046EAE0762C4337430A986305E40AA0EB75
:1009900008000022FD0A44EA47540A3002D500202C
:1009A0000146E9E7010510196941DDE9084500192B
:1009B0006941BDE8F04DA2E73A2800D2303820F076
:1009C0002002412A01D3A2F13700884201D34FF01F
:1009D000FF30704721B1826842F00102826003E07B
:1009E000826822F0010282607047000010B5044660
:1009F0001248844208D10121401501F06DFD00210B
:100A0000601501F069FD17E00D48844208D101210D
:100A1000001501F061FD0021201501F05DFD0BE0E6
:100A20000848844208D10121C80301F055FD002186
:100A30004FF4004001F050FD10BD000000240140C3
:100A400000280140003C0140014600208A6802F075
:100A500004020AB1012000E0002070470146002096
:100A60008A6802F008020AB1012000E00020704705
:100A700030B502460020002350680F4C20400D790D
:100A80000C6844EA05242043506090680B4C2040D9
:100A9000D1E902542C434D7944EA45042043906047
:100AA000D06A20F470000C7C641EE4B2234340EA58
:100AB0000350D06230BD0000FFFEF0FFFDF7F1FFF4
:100AC000816841F0080181607047816841F004014C
:100AD0008160704730B10749096841F40001054A57
:100AE000116005E00349096821F40001014A116021
:100AF000704700000824014030B501460846CC1775
:100B000001EB14742411A1EB04140A46CD1701EB78
:100B100015752D1105EB850504EB4504E3B2184668
:100B200030BD000008B50121082001F0C5FC4FF4DC
:100B30000070ADF8000010208DF8030003208DF840
:100B400002006946044800F093FC4FF4007102482B
:100B500000F024FD08BD0000000C014070470000BB
:100B600010B500241548006820F070601349086033
:100B70000846006840F00060086004E0601CC4B2F1
:100B8000012000F045F90E48006808B1642CF5DB3F
:100B9000642C01DB012010BD002404E0601CC4B201
:100BA000012000F035F90648006808B9642CF5DB2F
:100BB000642C01DB0120EEE70020ECE7040C01408F
:100BC0003881214208B501210C2001F075FC4FF459
:100BD0008040ADF8000010208DF8030003208DF850
:100BE00002006946064800F043FC4FF48041044887
:100BF00000F0D4FC00F068F8FFF7B2FF08BD000079
:100C0000000C014010B5002404E0601CC4B20120B7
:100C100000F0FEF80D48006808B1642CF5DB0024F4
:100C200004E0601CC4B2012000F0F2F8074800683C
:100C300008B9642CF5DB282000F0EAF803480068C6
:100C400008B1012010BD0020FCE7000038812142DE
:100C500070B50024002506E06006040EFFF7D2FF01
:100C60000443681CC5B2082DF6DB204670BD7CB578
:100C700005460E4600F028F8FFF772FFF8B9002489
:100C800005E0FFF7E5FF0DF80400601CC4B2052C79
:100C9000F7DB9DF800009DF8011008449DF8021054
:100CA00008449DF8031008449DF80410884208D1B8
:100CB0009DF8000030709DF80200287001E00120CE
:100CC0007CBD0020FCE7000010B50C48006820F057
:100CD00070600A4908600846006840F0407008608B
:100CE000002007490860142000F016F8012005498B
:100CF000C1F8B8011E2000F08BF810BD040C0140B3
:100D0000B881214200802142704710B56FF0040085
:100D100001F0D4FD10BD000010B50146B1F5E16F42
:100D200022D201EBC1034FF47A7463434FF0E02405
:100D300063610023A36123461B6943F00103236120
:100D400000BF4FF0E023186900F001031BB100F46D
:100D50008033002BF5D04FF0E0231B6923F0010313
:100D60004FF0E02423614FE000221FE0274B4FF0BB
:100D7000E02463610023A36123461B6943F0010360
:100D8000236100BF4FF0E023186900F001031BB19D
:100D900000F48033002BF5D04FF0E0231B6923F0E3
:100DA00001034FF0E0242361531CDAB24FF4E163F6
:100DB000B1FBF3F39342D9D84FF4E163B1FBF3F401
:100DC00003FB141303EBC3034FF47A7463434FF034
:100DD000E02463610023A36123461B6943F0010300
:100DE000236100BF4FF0E023186900F001031BB13D
:100DF00000F48033002BF5D04FF0E0231B6923F083
:100E000001034FF0E024236110BD00004031F700E2
:100E1000014601EBC1024FF0E0235A6100229A61C2
:100E20001A46126942F001021A6100BF4FF0E02237
:100E3000106900F001021AB100F48032002AF5D0E6
:100E40004FF0E022126922F001024FF0E0231A6114
:100E50007047000010B500F073FC002004490860E2
:100E60000449C1F8BC010021802000F077F810BDD2
:100E7000B40122420000224270B50546012601203D
:100E8000334908600A20FFF7C3FF00241CE000205C
:100E90002F49083108600A20FFF7BAFF05F001006A
:100EA00020B101202A49091D086003E000202849DB
:100EB000091D08606D1001202549083108600A20CD
:100EC000FFF7A6FF601CC4B2082CE0DB2148406895
:100ED00020F070601F4948600846406840F000609C
:100EE0004860002416E07610002019490831086097
:100EF0000A20FFF78DFF1848D0F8380108B146F0F6
:100F0000800601201249083108600A20FFF780FF9F
:100F1000601CC4B2082CE6DB0E48406820F070600C
:100F20000C4948600846406840F040704860002026
:100F30000749083108600A20FFF76AFF00200649C8
:100F4000C1F8B4010A20FFF763FF304670BD00000E
:100F5000B4012242001001400000224270B5054653
:100F60000E463048406820F070602E4948600846C0
:100F7000406840F04070486001202B4908600A201A
:100F8000FFF746FF00202949C1F8BC010A20FFF7FE
:100F90003FFF00241CE005F0010020B101202249A0
:100FA000091D086003E000201F49091D08606D103D
:100FB00001201D49083108600A20FFF729FF0020A1
:100FC0001A49C1F8BC010A20FFF722FF601CC4B215
:100FD000082CE0DB00241CE006F0010020B1012019
:100FE0001149091D086003E000200F49091D086030
:100FF000761001200C49083108600A20FFF708FF2D
:1010000000200A49C1F8BC010A20FFF701FF601C5B
:10101000C4B2082CE0DB0020034908600A20FFF777
:10102000F7FE70BD00100140B401224200002242D0
:10103000F0B59BB004460D4623461FA2642102A8CA
:10104000009502F02BFA002631E0002020490870BC
:101050002049087002A9204802F0EDF8002722E09C
:101060003220FFF759FE1A480078D0B100201B4902
:10107000184A127888541AA11848FFF799F830B125
:10108000002013490870134908701BB0F0BD002000
:101090000F4908700F4908704FF400710F48FFF7AF
:1010A0007CF8781CC7B2642FDADB701CC6B2052E40
:1010B000CBDB0120E9E7000041542B43574A415064
:1010C0003D222573222C222573220D0A00000000E8
:1010D0008D0000208C0000200044004048130020B8
:1010E0005749464920474F54204950002DE9F043C5
:1010F0009BB08046894616461F460025002400BF47
:1011000010E05DA15D4802F096F84FF4FA70FFF729
:1011100003FE5BA15CA000F067F908B9002503E0BD
:10112000681CC5B2052DECDB00BF35B158A004F03A
:1011300079F8FF201BB0BDE8F0835AA004F072F8E4
:101140004FA151A000F050F908B10120F2E75AA0D8
:1011500004F068F84AA15BA000F046F908B102204B
:10116000E8E75AA004F05EF845A15CA000F03CF965
:1011700008B10320DEE75DA004F054F840A15FA0B1
:1011800000F032F908B10420D4E74FF47A70FFF789
:10119000C3FD4FF47A70FFF7BFFD5BA004F042F887
:1011A00037A148A000F020F908B10520C2E759A0F6
:1011B00004F038F849464046FFF73AFF08B10620E8
:1011C000B8E758A004F02EF85AA15BA000F00CF983
:1011D00008B10720AEE75CA004F024F828A15EA0C7
:1011E00000F002F908B10820A4E75E495EA004F00F
:1011F00019F800255EA15B48FEF7DAFF044674B1DA
:10120000E41D06E014F8012B2846691CCDB202A9A2
:101210000A542078222802D020780028F2D1002019
:1012200002A9485550A003F0FDFF334652A26421A5
:1012300002A8009702F032F956A003F0F3FF3DA197
:1012400002A800F0D1F808B1092073E755A003F017
:10125000E9FF0BA157A000F0C7F808B10A2069E721
:1012600058A003F0DFFF5BA15BA000F0BDF808B160
:101270000B205FE700205DE72B2B2B000044004094
:101280004F4B0D0A0000000041540D0A0000000001
:10129000CDCBB3F6CDB8B4ABC4A3CABDCAA7B0DC3E
:1012A0000D0A0000312EB7A2CBCDB2E2CAD4D6B817
:1012B000C1EE0D0A00000000322EB9D8BBD8CFD441
:1012C0000D0A0000415445300D0A0000332EC9E8D4
:1012D000D6C3C4A3CABD0D0A0000000041542B436D
:1012E000574D4F44453D310D0A000000342EC4A334
:1012F000BFE9B8B4CEBB0D0A0000000041542B5228
:1013000053540D0A00000000352EB9D8BBD8CFD4F5
:101310000D0A0000362EC1ACBDD3574946490D0A0F
:1013200000000000372EC9E8D6C3B5A5C1ACBDD3B7
:101330000D0A00004F4B000041542B4349504D55BE
:10134000583D300D0A000000382EB2E9D1AF4950A7
:10135000B5D8D6B70D0A000041542B434946535225
:101360000D0A00004813002069703A25730D0A0029
:1013700053544149502C220041542B43495053545B
:101380004152543D22544350222C222573222C25B5
:10139000640D0A00392EC1ACBDD3B7FECEF1C6F73D
:1013A0000D0A0000C5E4D6C3CDB8B4ABC4A3CABD12
:1013B0000D0A000041542B4349504D4F44453D31E7
:1013C0000D0A0000BFAACABCB7A2CBCDCAFDBEDDC4
:1013D0000D0A00003E00000041542B434950534584
:1013E0004E440D0A000000002DE9F04104460F466E
:1013F000002531E000201A4908701A49087021467A
:10140000194801F018FF002622E016480078D0B1F4
:1014100000201649124A1278885439461348FEF7BC
:10142000C7FE30B100200E4908700E490870BDE8B3
:10143000F08100200A4908700A4908704FF40071D1
:101440000A48FEF7AAFE0520FFF766FC701CC6B22C
:10145000642EDADB681CC5B2052DCBDB0120E6E784
:101460008C0000208D000020004400404813002024
:101470002DE9F0410246002500260020002300242B
:10148000002791F803C00CF00F0591F803C00CF091
:10149000100CBCF1000F03D091F802C04CEA050516
:1014A00091F800C0BCF1000F31D0146800202BE08F
:1014B0004FF0010C0CFA00F3B1F800C00CEA03067F
:1014C0009E4220D183004FF00F0C0CFA03F7BC436F
:1014D00005FA03FC4CEA040491F803C0BCF1280FA0
:1014E00006D14FF0010C0CFA00FCC2F814C00AE05F
:1014F00091F803C0BCF1480F05D14FF0010C0CFA74
:1015000000FCC2F810C0401C0828D1D31460B1F808
:1015100000C0BCF1FF0F34DD546800202EE000F164
:10152000080C4FF0010808FA0CF3B1F800C00CEAFF
:1015300003069E4221D183004FF00F0C0CFA03F7F3
:10154000BC4305FA03FC4CEA040491F803C0BCF167
:10155000280F05D100F1080C08FA0CF8C2F8148025
:1015600091F803C0BCF1480F07D100F1080C4FF00F
:10157000010808FA0CF8C2F81080401C0828CED3E5
:101580005460BDE8F0810246002093680B400BB127
:10159000012000E000207047416170470161704701
:1015A00010B500F061F80149086010BD2C00002062
:1015B00070B500F059F820490860084600681F49D6
:1015C0000968884236D91C4800681D4908600846E9
:1015D00000681A490968401A1949086008460068F5
:1015E000FEF765FE05461749FEF723FE0446FEF7A3
:1015F00067FE1349086014480068062806DA0846A2
:101600000068124948660020087602E001200F4970
:1016100008760E48007E30B10C48406E08490968D3
:10162000081A0A4988660948806E002802DA0020F4
:101630000649886670BD0000280000202C000020AC
:10164000300000200000D74374000020F803002081
:1016500001460A2291FBF2F302FB131391FBF2F213
:1016600003EB0212D0B2704770B50120194908602F
:10167000FFF7CEFB00201849C1F88001002400BF0D
:10168000144800680028FBD1002513E0012011490F
:101690007C3108606400FFF7BBFB00200E49C1F8F5
:1016A00080010C48006800B1641C0120FFF7B0FB0A
:1016B000681CC5B2182DE9DB012006497C310860A1
:1016C00084F40004FFF7A4FB00200349C1F8800163
:1016D000204670BD048121420080214270470000F5
:1016E00010B580210748FFF759FF40210548FFF753
:1016F00055FF80210348FFF74FFF40210148FFF7C6
:101700004BFF10BD000C014010B540210548FFF70C
:1017100045FF80210348FFF73FFF80210148FFF785
:101720003DFF10BD000C014010B540210348FFF7FC
:1017300035FF40210148FFF72FFF10BD000C01408D
:1017400008B50121102000F0B7FE02208DF802003C
:101750008003ADF8000010208DF8030069460D48A5
:10176000FFF786FE4FF48040ADF8000010208DF8A2
:10177000030069460748FFF77BFE4FF40050ADF8C1
:10178000000010208DF8030069460248FFF770FE44
:1017900008BD00000010014008B50121082000F03C
:1017A0008BFE0120ADF8000010208DF8030003200F
:1017B0008DF8020069460948FFF75AFE0220ADF88D
:1017C000000048208DF8030069460448FFF750FEEA
:1017D00001210248FFF7E2FE08BD0000000C0140B5
:1017E00008B501210C2000F067FE4FF4F070ADF851
:1017F000000048208DF8030069460748FFF738FECF
:101800001020ADF8000048208DF803006946034819
:10181000FFF72EFE08BD000000080140000C01404B
:101820002DE9F047074688469146BA46A7E099F861
:101830000000802839DA99F800600D2E05D157464E
:1018400008F110001FFA80F82CE0202E03DDA6F12D
:10185000200086B200E0002600241EE0002518E0EB
:1018600004EB06104949095C80202841014039B148
:1018700008EB0402D1B27A19D0B200F05FFC06E0A6
:1018800008EB0402D1B27A19D0B200F003FC681C54
:10189000C5B2082DE4DB601CC4B2102CDEDB07F1FE
:1018A000080087B209F1010969E0002660E006EB53
:1018B0000610374911F8100099F80010884255D1E8
:1018C00006EB0610324901EB4000407899F8011010
:1018D00088424BD1002447E000251CE006EB0610AF
:1018E0002B4901EB4000801C10F814008021294195
:1018F000084038B108EB0402D1B27A19D0B200F036
:101900001DFC06E008EB0402D1B27A19D0B200F057
:10191000C1FB681CC5B2082DE0DB002520E006EB0A
:1019200006101B4901EB4000801C012101EB440122
:10193000405C80212941084040B108EB0402D1B24B
:101940007A190832D0B200F0F9FB07E008EB040284
:10195000D1B27A190832D0B200F09CFB681CC5B233
:10196000082DDCDB601CC4B2102CB5DB701C86B209
:10197000782E9CDB09F1020907F1100087B299F873
:10198000000000287FF453AFBDE8F0871E78000800
:10199000086C000808B50121182000F08DFD4FF4F7
:1019A0008070ADF8000010208DF8030003208DF842
:1019B000020069460448FFF75BFD4FF4807102485E
:1019C000FFF7ECFD08BD0000000C01402DE9FE43CF
:1019D0000746884615463846FEF708FC0290404602
:1019E000FEF704FC01902846FEF700FC0090002062
:1019F0009D49088002980C300199891C0144009887
:101A0000801C0C181021984802880088401C964BB6
:101A1000188096480068815400BF2046E21704EB06
:101A20005262D211A4EBC212D1B2E21704EB52629D
:101A3000D411002C01DD41F080018B480288008820
:101A4000401C894B1880894800688154002CE4DCD4
:101A50000022184601880088401C188083480068CE
:101A600042540422184601880088401C18807F4890
:101A7000006842544D21184602880088401C188096
:101A80007A48006881545121184602880088401C19
:101A900018807648006881545421184602880088CE
:101AA000401C1880714800688154184602880088DC
:101AB000401C18806D480068815404211846028833
:101AC0000088401C1880694800688154C22118466B
:101AD00002880088401C18806448006881540021F6
:101AE000184602880088401C1880604800688154AD
:101AF0006421184602880088401C18805B480068F2
:101B000081549DF80920184601880088401C1880DF
:101B10005648006842549DF808101846028800880C
:101B2000401C1880514800688154504909681A4681
:101B3000128888183946029AFEF716FB4A48008830
:101B400002990844484908800198002823DD9DF83F
:101B50000520084601880088401C434B18804348F4
:101B6000006842549DF80420184601880088401CF3
:101B700018803E48006842543C4909681A46128859
:101B800088184146019AFEF7EFFA37480088019914
:101B90000844354908800098002823DD9DF801108D
:101BA000314802880088401C2F4B18802F4800685D
:101BB00081549DF80010184602880088401C188047
:101BC0002A4800688154294909681A4612888818E9
:101BD0002946009AFEF7C8FA23480088009908446D
:101BE0002149088000263AE0214801882148006800
:101BF000FEF7D3FA1C4801881C48006800F006F97B
:101C00004FF0000926E03220FFF786F81A480078E6
:101C100058B11A4802781A4916480068FEF7A4FA23
:101C200000201549087015490870124800680078AE
:101C300014490978884209D10E4800684078114952
:101C40004978884202D10020BDE8FE8309F10100F5
:101C50001FFA80F9B9F10A0FD5DB701C86B20A2E83
:101C6000C2DB0120F0E700000A0000200400002091
:101C700008000020000000208D0000208C000020C3
:101C8000481300203C54000810B50D480D49086069
:101C90004FF480700C4908800C480D4908604FF4DF
:101CA00080700C4908800848018806480068FEF7E3
:101CB00074FA0848018806480068FEF76EFA10BDFD
:101CC000AF0100200000002008000020AF0000202D
:101CD000040000200A0000202DE9FC410746884648
:101CE00016463846FEF782FA01904046FEF77EFA25
:101CF000054600200090434908801EB10198001D50
:101D0000441902E00198801C441930213D480288A2
:101D10000088401C3B4B18803B480068815400BF42
:101D20002046E21704EB5262D211A4EBC212D1B2E8
:101D3000E21704EB5262D411002C01DD41F0800166
:101D4000304802880088401C2E4B18802E480068BE
:101D50008154002CE4DC9DF8052018460188008899
:101D6000401C18802848006842549DF8041018460A
:101D700002880088401C188023480068815422494A
:101D800009681A46128888183946019AFEF7ECF954
:101D90001C480088019908441A490880CEB19DF872
:101DA0000110184802880088401C164B18801648FD
:101DB000006881549DF80010184602880088401C75
:101DC0001880114800688154BDF80000401C80B2A2
:101DD00000900D4909680B4A128888182A46414626
:101DE000FEF7C2F9074800882844064908800846DB
:101DF00001880548006800F009F802480078BDE84D
:101E0000FC8100000A0000200400002070B5044698
:101E10000D462A462146024801F0FCF970BD00003B
:101E2000004400402DE9F843074688461546002047
:101E3000614908803846FEF7D9F900900098001DE6
:101E40000DB1012100E00021441855B182215A480A
:101E500002880088401C584B1880584800688154FC
:101E600009E0A221544802880088401C524B188087
:101E700052480068815400BF2046E21704EB5262CA
:101E8000D211A4EBC212D1B2E21704EB5262D41108
:101E9000002C01DD41F08001474802880088401C89
:101EA000454B1880454800688154002CE4DC002232
:101EB000184601880088401C188040480068425439
:101EC0000121184602880088401C18803B480068A1
:101ED00081549DF80110184602880088401C188023
:101EE0003648006881549DF8001018460288008822
:101EF000401C1880314800688154304909681A46EE
:101F0000128888183946009AFEF72EF92A48008868
:101F100000990844284908804DB108460188008886
:101F2000401C254A10802548006800F801800026E2
:101F30003DE02348018823480068FEF72EF91E483B
:101F400001881E480068FFF761FF4FF0000929E093
:101F50003220FEF7E1FE1C48007870B11BA003F0B0
:101F600061F91B4802781B4916480068FEF7FCF827
:101F7000002015490870164908701248006800785A
:101F800015490978884209D10E48006840781249FD
:101F90004978884202D10020BDE8F88309F10100A8
:101FA00000F0FF09B9F10A0FD2DB701CC6B20A2E8D
:101FB000BFDB0120F0E700000A0000200400002041
:101FC00008000020000000208D0000200A00000012
:101FD0008C000020481300204654000870477047CA
:101FE00070B5002100230F22C47804B3154C246877
:101FF00004F4E064C4F5E064210AC1F10403CA40BA
:10200000447804FA03F184781440214309010E4C0A
:102010000678A155047804F01F050124AC4005782A
:102020006D11AD0005F1E025C5F8004109E0047827
:1020300004F01F050124AC40044D0678761145F8E4
:10204000264070BD0CED00E000E400E080E100E01F
:1020500002490143024A1160704700000000FA057E
:102060000CED00E070B500240CE0002506E0002037
:10207000074901EBC5010855681CC5B2802DF6DB88
:10208000601CC4B2082CF0DB00F008F970BD000041
:102090006806002070B50B46CE1701EB5676C6F3E6
:1020A000C702CE1701EB5676F610A1EBC606F4B2C6
:1020B0000123A340DDB20E4B03EBC0039B5CDB436B
:1020C0000B4E06EBC006B354094B03EBC0039B5CFD
:1020D0002B43074E06EBC006B354054B03EBC0037E
:1020E0009B5CDB43024E06EBC006B35470BD0000A0
:1020F0006806002010B504461CB90021A62000F097
:1021000092F9012C03D10021A72000F08CF910BD19
:1021100010B504463CB90021C82000F084F9002124
:10212000A12000F080F9012C07D10021C02000F08F
:102130007AF90021A02000F076F910BD70B50A46AA
:10214000CE1701EB5676C6F3C703CE1701EB5676D2
:10215000F610A1EBC606F4B20122A240D5B2054AA0
:1021600002EBC002D25C2A43024E06EBC006F254D8
:1021700070BD00006806002008B50121082000F0AD
:102180009BF9C020ADF8000010208DF8030003205B
:102190008DF8020069464048FFF76AF9C0213E48C1
:1021A000FFF7FCF90021AE2000F03DF900210846C0
:1021B00000F039F90021102000F035F9002140200D
:1021C00000F031F90021812000F02DF90021CF200D
:1021D00000F029F90021A12000F025F90021C820F4
:1021E00000F021F90021A62000F01DF90021A8200F
:1021F00000F019F900213F2000F015F90021D3204B
:1022000000F011F90021084600F00DF90021D52059
:1022100000F009F90021802000F005F90021D92003
:1022200000F001F90021F12000F0FDF80021DA2092
:1022300000F0F9F80021122000F0F5F80021DB2071
:1022400000F0F1F80021402000F0EDF800212020FE
:1022500000F0E9F80021022000F0E5F800218D20CF
:1022600000F0E1F80021142000F0DDF80021A420A6
:1022700000F0D9F80021A62000F0D5F80021AF2009
:1022800000F0D1F8FFF7EEFE0020FFF733FF00204B
:10229000FFF73EFF08BD0000000C014070B50024B0
:1022A0001CE004F1B001C8B2002100F0BCF800212C
:1022B000084600F0B8F80021102000F0B4F800251E
:1022C00008E0084901EBC501085D012100F0ABF809
:1022D000681CC5B2802DF4DB601CC4B2082CE0DBA6
:1022E00070BD0000680600202DE9FF4F81B08046D8
:1022F0000E461C4600962046E31704EB5373DB1092
:1023000021464FEAE47C04EB5C7C4FEAEC0CA4EB46
:10231000CC0CBCF1000F02D04FF0010C01E04FF0EB
:10232000000C6344224604EBD27C4FEA6C0C03FBA6
:102330000CF303F0FF0B03982038C7B2002547E0E9
:102340000C2C07D107EB4700234901EB800010F864
:1023500005A014E0102C05D1204800EB071010F860
:1023600005A00CE0182C07D107EBC7001C4901EBB6
:10237000800010F805A002E005B0BDE8F08F4FF036
:1023800000091FE00AF0800020B131464046FFF707
:10239000D5FE03E031464046FFF77CFE4FEA4A6037
:1023A0004FEA106A701CC6B20098301AA04205D1DC
:1023B000009E08F1010000F0FF0806E009F10100AD
:1023C00000F0FF09B9F1080FDCDB00BF681CC5B2E3
:1023D0005D45B5DB00BFCFE748540008BC58000896
:1023E000AC5E0008F0B506460F4614461D4613E0E5
:1023F00022782B4639463046FFF776FF284605EB14
:10240000D07106EB6101CEB2C5F18000B04202DAB4
:102410000026B81CC7B2641C2078202802DB207874
:102420007E28E5DDF0BD70B505460C46FFF758F98E
:10243000782000F0A9F9FFF777F91CB1402000F0EF
:10244000A3F902E0002000F09FF9FFF76DF928469C
:1024500000F09AF9FFF768F9FFF756F970BD704779
:1024600001460020034A506820F440400843506071
:10247000704700000010024029B1064AD2690243A9
:10248000044BDA6104E0034AD2698243014BDA610A
:10249000704700000010024029B1064A1269024349
:1024A000044B1A6104E0034A12698243014B1A612A
:1024B000704700000010024029B1064A92690243A9
:1024C000044B9A6104E0034A92698243014B9A618A
:1024D000704700000010024029B1064AD26802434A
:1024E000044BDA6004E0034AD2688243014BDA60AD
:1024F000704700000010024030B500210022002487
:1025000000232D4D6D6805F00C0121B1042905D083
:10251000082923D105E0294D056022E0274D0560FB
:102520001FE0254D6D6805F47012234D6D6805F4AC
:102530008034022505EB92421CB9214D55430560BC
:102540000BE01D4D6D6805F400351DB11C4D554364
:10255000056002E0194D5543056002E0174D056026
:1025600000BF00BF144D6D6805F0F0010909154D5D
:102570006B5C0568DD4045600F4D6D6805F4E061FA
:10258000090A104D6B5C4568DD4085600A4D6D6839
:1025900005F46051C90A0B4D6B5C4568DD40C560B0
:1025A000054D6D6805F44041890B074D6B5CC568AE
:1025B000B5FBF3F5056130BD0010024000127A0052
:1025C00000093D00560000206600002010B58D2057
:1025D000FEF752FC0446FEF78FFA1D4988808920D9
:1025E000FEF74AFC0446FEF787FA194988718720EE
:1025F000FEF742FC0446FEF77FFA1549C8718520B4
:10260000FEF73AFC0446FEF777FA1149087083207A
:10261000FEF732FC0446FEF76FFA0D494870812040
:10262000FEF72AFC00F07F042046FEF765FA084911
:1026300088708B20FEF720FC0446FEF75DFA044903
:1026400008720846808800F5FA60888010BD000096
:10265000E80A0020F0B503460C461546642093FBBB
:10266000F0F0C6B2642093FBF0F700FB1730C1B264
:10267000132E02DD01F16400C1B20846CF1701EB51
:10268000977701EBA707BAB2072092FBF0F700FBA0
:10269000172082B25719601EDFF82CC01CF800000A
:1026A000384482B2CF1701EB9777BF10A1EB8707B1
:1026B0001FB9032C01DA501E82B2072092FBF0F7FB
:1026C00000FB1720C0B2F0BD0F7E00082DE9F84FC7
:1026D00004460D4616461F46DDE90A894FF0000AFA
:1026E000B4F5FA6F03DBA4F5FA6000F0FF0A324696
:1026F00029462046FFF7AEFF834600218E20FEF7D5
:102700002DFC80210846FEF729FC5046FEF7A0FF6D
:10271000014600908C20FEF721FC2846FEF798FF2A
:10272000014600908820FEF719FC3046FEF790FF26
:10273000014600908620FEF711FC3846FEF788FF20
:10274000014600908420FEF709FC4046FEF780FF1A
:10275000014600908220FEF701FC4846FEF778FF14
:10276000014600908020FEF7F9FB5846FEF770FF07
:10277000014600908A20FEF7F1FB80218E20FEF7B3
:10278000EDFBBDE8F88F704770B5044600251BE0EF
:1027900040210F48FEF700FF04F0800020B18021A7
:1027A0000B48FEF7FBFE03E080210948FEF7F4FE2C
:1027B00040210748FEF7F2FE40210548FEF7ECFEF7
:1027C0006006040E681CC5B2082DE1DB70BD000078
:1027D000000C014010B500F001F810BD0CB5002050
:1027E000019000903348006840F48030314908601F
:1027F00000BF3048006800F4003000900198401C91
:102800000190009818B90198B0F5A06FF1D129484E
:10281000006800F4003010B10120009001E00020B9
:1028200000900098012843D12348006840F0100030
:10283000214908600846006820F003000860084647
:10284000006840F0020008601A4840681949486072
:102850000846406848600846406840F48060486028
:102860000846406820F47C1048600846406840F400
:10287000E81048600846006840F08070086000BFBB
:102880000C48006800F000700028F9D00948406842
:1028900020F00300074948600846406840F0020005
:1028A000486000BF0348406800F00C000828F9D1D8
:1028B0000CBD00000010024000200240042808D196
:1028C0004FF0E021096941F004014FF0E02211616D
:1028D00007E04FF0E021096921F004014FF0E02208
:1028E000116170477047000010B51348006840F050
:1028F00001001149086008464068104908400E4927
:102900004860084600680E4908400B4908600846C0
:10291000006820F4802008600846406820F4FE002B
:1029200048604FF41F008860FFF754FF4FF00060CD
:102930000449086010BD0000001002400000FFF8CC
:10294000FFFFF6FE08ED00E07FB504460D460121CD
:10295000C802FFF7B1FDADF80840ADF80450002003
:10296000ADF80A00ADF806008DF80C0001A9144876
:1029700000F01AF90121124800F0EAF8012211468C
:102980000F4800F008F919208DF8000001208DF89B
:10299000010000208DF8020001208DF80300684638
:1029A000FFF71EFB0121064800F0D8F8002004E0E4
:1029B0000021044A42F82010401C0428F8DB7FBDA7
:1029C000002C0140300B002010B50121134800F00D
:1029D000D1F808B300240CE0114850F8240030B1BD
:1029E0000F4850F82400401E0D4941F82400601C97
:1029F000C4B2042CF0DB0B480078012805D10A484A
:102A00000078401C0849087002E000200649087060
:102A10000121024800F09FF810BD0000002C014089
:102A2000300B00206B0000206C00002010B501214D
:102A3000880700F09FF840B10121880700F08BF86B
:102A400002480068401C0149086010BD7400002065
:102A50007FB505460C4601210846FFF70DFDADF890
:102A60000850ADF804400020ADF80A00ADF80600AB
:102A700001A94FF0804000F097F80122114690071D
:102A800000F089F81C208DF8000001208DF801006D
:102A900004208DF8020001208DF803006846FFF73E
:102AA0009FFA7FBD10B501210D4800F063F8A8B171
:102AB00001210B4800F04FF80A48007820B10A487D
:102AC0000068401C08490860074800680A2805D1CA
:102AD00001200649087000200349086010BD00006D
:102AE000000400407A0000208000002078000020D0
:102AF0007FB505460C4601210220FFF7BDFCADF86D
:102B00000850ADF804400020ADF80A00ADF806000A
:102B100001A90E4800F048F8012211460B4800F0C8
:102B20003AF81D208DF8000001208DF801000320E7
:102B30008DF8020001208DF803006846FFF750FA77
:102B40000121024800F00AF87FBD000000040040A7
:102B5000CA4302827047CA430282704721B1028889
:102B600042F00102028004E002884FF6FE731A4030
:102B70000280704730B50246002000230024158AE9
:102B800005EA0103958905EA010413B10CB101209E
:102B900000E0002030BD1AB183890B43838102E03D
:102BA00083898B4383817047002202881D4B9842A2
:102BB0000ED01D4B98420BD0B0F1804F08D01B4B6C
:102BC000984205D01A4B984202D01A4B984204D131
:102BD0004FF68F731A404B881A43174B984207D011
:102BE000164B984204D04FF6FF431A40CB881A4345
:102BF00002808B8883850B8803850A4B98420BD013
:102C0000094B984208D00E4B984205D00D4B984284
:102C100002D00D4B984201D10B7A038601238382A7
:102C200070470000002C01400034014000040040C7
:102C300000080040000C004000100040001400405C
:102C400000400140004401400048014000B587B009
:102C500001214FF40170FFF72FFC0320ADF818009D
:102C600000208DF81B0003208DF81A0006A91B48D0
:102C7000FEF7FEFB4FF40040FFF7F2FB1848FDF7AC
:102C8000B5FE002001908DF808008DF809004FF482
:102C9000602003900020049001208DF8140001A909
:102CA0000F48FDF7E5FE0120FDF714FF01210C4858
:102CB000FDF790FE0A48FDF703FF00BF0848FDF747
:102CC000CDFE0028FAD10648FDF7FFFE00BF0448FC
:102CD000FDF7BAFE0028FAD107B000BD0008014098
:102CE0000024014010B540F22551214800F01CF9A4
:102CF00060B3204890F8010228B9012240F2244133
:102D00001B4800F03BF91B4890F80002B0F5007F2B
:102D100003D30020174981F800021548001D0088E0
:102D2000C1B2144890F8002290F80002401C114BE8
:102D300083F800021846815490F80002194681F881
:102D4000000220210A4800F08BF80FE040F22441F5
:102D5000074800F0E9F848B10120064981F801026E
:102D6000002240F22441024800F008F910BD0000A2
:102D700000380140400B002010B540F225511748A3
:102D800000F0D2F8C8B1154800F08AF9C4B214486E
:102D9000007828B9012240F22441104800F0EEF8F2
:102DA00010480F49097844540D480078401C0C49DC
:102DB00008700846007808700EE040F22441074889
:102DC00000F0B2F840B1012007490870002240F23B
:102DD0002441024800F0D2F810BD00000044004039
:102DE0008C000020481300208D00002010B540F218
:102DF0002551174800F098F8C8B1154800F050F96F
:102E0000C4B21448007828B9012240F22441104885
:102E100000F0B4F810480F49097844540D48007880
:102E2000401C0C4908700846007808700EE040F21B
:102E30002441074800F078F840B1012007490870A4
:102E4000002240F22441024800F098F810BD000032
:102E500000480040960000204817002097000020FE
:102E600001F40072B2F5007F00D100BFCA430280B6
:102E7000704721B1828942F40052828104E0828944
:102E80004DF6FF731A4082817047000010B504466A
:102E90002048844209D101218803FFF71DFB00214E
:102EA0004FF48040FFF718FB32E01B48844209D101
:102EB00001214804FFF7F0FA00214FF40030FFF73A
:102EC000EBFA25E01548844209D101218804FFF777
:102ED000E3FA00214FF48020FFF7DEFA18E01048F3
:102EE000844209D10121C804FFF7D6FA00214FF42A
:102EF0000020FFF7D1FA0BE00A48844208D10121F3
:102F00000805FFF7C9FA00214FF48010FFF7C4FA53
:102F100010BD00000038014000440040004800405F
:102F2000004C00400050004070B5024600240023D1
:102F30000025002040F66A16B14200D100BFC1F35F
:102F4000421501F01F03012606FA03F3012D02D1F9
:102F50009689334006E0022D02D1168A334001E003
:102F6000968A33400C12012606FA04F4168834407F
:102F700013B10CB1012000E0002070BDF0B5034694
:102F8000002400260025002040F66A17B94200D12F
:102F900000BF1846C1F3421401F01F06012707FACB
:102FA00006F5012C01D10C3004E0022C01D11030C7
:102FB00000E014301AB107682F43076002E0076889
:102FC000AF430760F0BD00002DE9F04786B005462D
:102FD0000E460024A24600BFA1460027B08900B1DA
:102FE00000BF2F462C8A4CF6FF700440F088044343
:102FF0002C82AC894EF6F3100440B0883189084326
:10300000718908430443AC81AC8A4FF6FF40044009
:10301000B0890443AC8201A8FFF76EFA1F488742CB
:1030200002D1DDF810A001E0DDF80CA0A88900F4C1
:10303000004040B10AEBCA0000EB0A1031684900B9
:10304000B0FBF1F807E00AEBCA0000EB0A103168A8
:103050008900B0FBF1F86420B8FBF0F0040120090E
:10306000642101FB1089A88900F4004040B132209E
:1030700000EBC900B0FBF1F000F00700044308E0EA
:10308000322000EB09106421B0FBF1F000F00F00DA
:1030900004432C8106B0BDE8F087000000380140F1
:1030A00001468888C0F308007047704710B586B0A5
:1030B000044601210420FFF7FFF901218803FFF7EF
:1030C000FBF918208DF817004FF40070ADF81400CC
:1030D00003208DF8160005A91E48FEF7C9F9042043
:1030E0008DF817000002ADF8140003208DF81600CB
:1030F00005A91848FEF7BCF901940020ADF81000AE
:103100000C20ADF80E000020ADF80C00ADF80A0060
:10311000ADF8080001A91048FFF756FF01210E483D
:10312000FFF7A7FE012240F225510B48FFF726FFCB
:1031300025208DF8000001208DF8030000208DF877
:10314000010002208DF802006846FEF749FF06B034
:1031500010BD0000000801400038014010B586B0E5
:1031600004464FF4A060FEF773FF01214804FFF707
:1031700083F901210420FFF79FF92448FFF786FE19
:103180000420ADF8140003208DF8160018208DF8E7
:10319000170005A91E48FEF76BF90820ADF81400CA
:1031A00004208DF8170005A91948FEF761F901946C
:1031B0000020ADF80800ADF80A00ADF80C00ADF83D
:1031C00010000C20ADF80E0001A91048FFF7FCFE1E
:1031D00020210E48FFF744FE012240F225510B4802
:1031E000FFF7CCFE26208DF8000000208DF80100AE
:1031F0008DF8020001208DF803006846FEF7F0FE0E
:1032000001210248FFF735FE06B010BD0044004022
:103210000008014010B50B46002100BF08E05C5CCF
:10322000848000BF048804F08004002CFAD0491C7C
:103230009142F4D310BD08E00A78828000BF028872
:1032400002F08002002AFAD0491C0A78002AF3D141
:1032500070472DE9F04180460E46154600240027B0
:1032600031464046FCF7A4FF0446B4B13046FCF7B3
:10327000BDFF801C044400BF05E014F8012B384654
:10328000791C8FB22A5420787D2802D0207800281B
:10329000F3D10020E855BDE8F0810120FBE70000F4
:1032A0002DE9F04186B080460F46164600240020E6
:1032B00002900390049005903A4628A102A800F0DD
:1032C00001F902A94046FCF773FF04461CB901202E
:1032D00006B0BDE8F08102A8FCF788FF0444002096
:1032E000019000250CE02078302808DB2078392870
:1032F00005DC22782846691CCDB201A90A54641C59
:1033000020783A2803D0207808B1022DEBDB641C2A
:103310000020009000250CE02078302808DB207881
:10332000392805DC22782846691CCDB20DF800202A
:10333000641C20783A2806D02078222803D02078F0
:1033400008B1022DE8DB01A8FCF766FF3070684683
:10335000FCF762FF70700020BAE700002573223A84
:103360002200000010B510E040F25B731FA225A1FF
:1033700027A0FDF7BBFE274908700846007800B972
:1033800004E04FF4FA70FDF7C7FCEDE700BF22A0A0
:1033900001F048FF13E0FEF777FC24A226A12BA042
:1033A000FEF714FB1B4908700846007800B907E0D7
:1033B0004FF4FA70FDF7B0FC27A001F033FFEAE705
:1033C00000BF29A001F02EFF0122002129A0FEF755
:1033D00029FD104908700846007818B129A001F0AD
:1033E00021FF02E02AA001F01DFF10BD73682D35FA
:1033F0002D6D7174742E696F742D6170692E636FF9
:103400006D000000313233343536373800000000AB
:1034100063736B0024000020B7FECEF1C6F7C1AC89
:10342000BDD3B3C9B9A60D0A000000005969366BB7
:1034300057584230645700007961306A77663167C7
:1034400067716B6E7763687A0000000064786B3197
:103450007162316400000000D5FDD4DAC1ACBDD387
:103460002E2E2E2E0D0A0000C1ACBDD3B3C9B9A6B5
:103470000D0A0000617474726962757465732F704F
:1034800075736800B6A9D4C4CAA7B0DC0D0A0000E1
:10349000B6A9D4C4B3C9B9A60D0A00000FB41CB5AF
:1034A0000A46521ECDE9000207A9054B6A46069856
:1034B00000F0F4F8009A002111701CBC5DF814FBB8
:1034C000CB3D00080FB4084B10B504A902AA03981D
:1034D00000F0E4F8044602A9002000F081FC204638
:1034E00010BC5DF814FB0000E13D000837B5144640
:1034F0000846064B6A46214600F0D0F80446694665
:10350000002000F06DFC20463EBD0000E13D0008BB
:10351000004870479C00002002E008C8121F08C144
:10352000002AFAD170477047002001E001C1121F44
:10353000002AFBD1704700002DE9FF5FDDE9022082
:10354000010DDDF838B0024318D044F61050A1F256
:10355000FF3141430D140F98012820D0A5EB0B003B
:10356000401C5FEA000A4FF00004474EDFF81C9150
:10357000A046504616D5CAF1000728E00F9801244E
:1035800043A2012808D0002100980F9BC0E9002128
:10359000C0E90243BDE8FF9F6FEA0B01F4E7CBF1FE
:1035A0000000DEE7074612E0F80707D02246334660
:1035B00040464946FCF7FAFF804689462246334694
:1035C00010461946FCF7F2FF04460E467F10002F06
:1035D000EAD1DDE90201BAF1000F42464B4602DAB8
:1035E000FCF7E4FF01E0FDF753F804460E46002225
:1035F000284BFDF7D5F803D84FF0FF30014607E020
:103600000022254B20463146FCF729FFFDF7AFF895
:10361000102409E0002C0ADB0A220023FCF77FFEBD
:10362000019B30321A55641E50EA0102F2D1641C2B
:10363000019AC4F1110314440F9A012A03D0012204
:1036400008430DD10AE0084304D000204FF0110BCD
:103650000F9080E7A3EB0B056D1E0DE05B4504DDCD
:103660004FF0000205F1010504E003DA4FF000021B
:10367000A5F10105002AECD000980F99C0E90231AC
:10368000C0E9004586E70000000024400000F03F4C
:10369000300000000000F0430000E03F2DE9FF4F44
:1036A00095B09B468946064600250FE2252877D12E
:1036B00000242746F84A0121059400E0044316F847
:1036C000013F203B01FA03F01042F7D130782A285D
:1036D00011D06FF02F033078A0F13002092A16D8EC
:1036E000059A44F0020402EB820203EB420210440A
:1036F000761C0590EFE759F8042B0592002A03DAAF
:10370000504244F40054059044F00204761C307892
:103710002E2816D116F8010F44F004042A280DD0E3
:103720006FF02F023078A0F13003092B09D807EB96
:10373000870302EB4303C718761CF3E759F8047BB1
:10374000761C30786C280FD006DC4C2817D06828FF
:103750000DD06A2814D104E0742810D07A280FD133
:103760000DE044F400140AE044F4801401E044F451
:1037700040147278824202D104F58014761C761CC3
:10378000307866280BD013DC582877D009DC002865
:1037900075D04528F6D04628F4D047281AD19DE1A7
:1037A00018E0632835D0642879D0652812D195E1D6
:1037B000702873D008DC6728F1D069286FD06E2894
:1037C0000DD06F2806D1B5E073282CD0752875D0A0
:1037D000782874D05A46179990476D1C75E1C4F348
:1037E0000250022809D003280DD0D9F8001004286F
:1037F0000DD00D6009F1040967E1D9F80010EA174E
:10380000C1E90052F6E7D9F800100D80F2E70D701B
:10381000F0E719F8041B8DF8001000208DF8010066
:10382000EA46012003E059F804AB4FF0FF3061078E
:103830004FF0000102D40DE008F101018846B942C1
:103840000FDA8045F8DB1AF808100029F4D108E0F7
:1038500008F1010188468142FADB1AF808100029B4
:10386000F6D105985B46A0EB080721463846179A23
:1038700000F094FA284400EB080507E04DE029E148
:103880000DE01AF8010B5A4617999047B8F1010854
:10389000F7D25B4621463846179A13E142E00A22E6
:1038A0000092C4F302524FF0000A022A08D059F8DD
:1038B00004CB032A4FEAEC710AD00DE029E02AE09C
:1038C00009F1070121F00702F2E802C1914609E07F
:1038D0000FFA8CFC4FEAEC71042A03D14FFA8CFCEE
:1038E0004FEAEC71002907DA0A460021DCF1000CEE
:1038F00061EB02012D2202E0220504D52B228DF876
:103900000420012203E0E20701D02022F7E79046DD
:1039100059E00A2102E010220DE010214FF0000AC8
:1039200000910BE010224FF0000A44F00404082735
:10393000009203E008224FF0000A0092C4F3025202
:10394000022A05D059F804CB0021032A08D009E047
:1039500009F1070121F00702F2E802C1914605E0F2
:103960001FFA8CFC042A01D10CF0FF0C4FF0000868
:10397000220728D5702806D0009B83F0100353EA55
:103980000A0305D00EE040228DF80420012208E051
:103990005CEA010206D030228DF804208DF8050083
:1039A00002229046009B83F0080353EA0A030AD1DF
:1039B0005CEA010201D1620705D530228DF80420AE
:1039C0004FF001087F1E582804D034A003900EA8A1
:1039D00002900DE036A0F9E753466046009AFCF7E6
:1039E0009EFC84460398825C0298401E02900270FE
:1039F0005CEA0100F0D1029806A9081A00F1200A39
:103A0000600702D524F4803400E00127574502DD29
:103A1000A7EB0A0000E0002000EB0A0100900598E7
:103A20004144401A0590E00306D45B462146179AAC
:103A3000059800F0B3F90544002706E001A85A46AE
:103A4000C05D179990476D1C7F1C4745F6DBE0036E
:103A50000CD55B462146179A059800F09FF905445E
:103A600004E030205A46179990476D1C0099481E73
:103A700000900029F5DC08E0029802995A46007887
:103A8000491C0291179990476D1CBAF10001AAF1E7
:103A9000010AF1DC65E10000092801003031323310
:103AA000343536373839616263646566000000007A
:103AB0003031323334353637383941424344454664
:103AC0000000000000F058F90544761C307800280A
:103AD0007FF4ECAD19B02846BDE8F08F620700D442
:103AE000062709F1070222F0070CFCE80223E14651
:103AF00003F000485FEA080C02D00FF2702C0DE0D2
:103B00005FEA045C02D50FF2682C07E05FEAC47C30
:103B100002D00FF2602C01E0AFF2700C4FF0FF38D2
:103B200023F00043CDF850C065280CD006DC4528B2
:103B300009D046281DD047283DD13DE0662818D041
:103B400067287ED138E00021112F01DB112000E031
:103B5000781CCDE9000106A90EA8FFF7EDFCDDE910
:103B60000F010E9A03910021009207F1010A0491BE
:103B70004DE04FF000400097CDE9011006A90EA8D6
:103B8000FFF7DAFCDDE90F0203920E9B1199002288
:103B9000DDF80CA00093049211B9791C00EB010A26
:103BA000B7EB0A0004D4C0F1FF3007F1010A04901A
:103BB000AAEB0700019044E0012F00DA0127002161
:103BC000112F01DD112000E03846CDE9000106A9E2
:103BD0000EA8FFF7B1FCDDE90F010E9A0391002159
:103BE00004910092BA4621070CD40399514500DA9A
:103BF0008A46BAF1010F05DD009AAAF10101515C74
:103C0000302908D0B84202DA10F1040F06DA012197
:103C1000CDE9011015E0AAF10101E9E7002805DC72
:103C2000049901440491AAEB000102E0411C5145B2
:103C300000DD8A460499401A401C01904FF0004074
:103C40000290200704D40198504501DBCDF8048090
:103C500000208DF84F0002980DF14F07B0F1004F92
:103C600025D02B200E9002984FF0020800280CDA85
:103C7000404202902D200E9007E00A210298FCF7A6
:103C800038FB3031029007F8011DB8F10001A8F1AE
:103C90000108F2DC02980028EFD1791E0E98087016
:103CA000307800F0200040F0450007F8020D12A81F
:103CB000C01B00F107081498007800B1012000EB48
:103CC0000A01019801EBE07105984144401A401E39
:103CD0000590E00306D45B462146179A059800F04C
:103CE0005DF805441498007818B15A461799904722
:103CF0006D1CE00324D55B462146179A059800F019
:103D00004DF805441CE00498002807DBDDE90301B9
:103D1000884203DD0098405C179901E01799302034
:103D20005A469047049805F10105401C04900198FB
:103D3000401E019004D12E205A46179990476D1CC1
:103D4000BAF10001AAF1010ADDDC05E017F8010B68
:103D50005A46179990476D1CB8F10001A8F1010867
:103D6000F4DC5B462146179A0598ABE62D0000006F
:103D70002B000000200000002DE9F0410446002542
:103D80001E461746880404D405E039462020B04773
:103D90006D1C641EF9D52846BDE8F0812DE9F0417F
:103DA000044600251E469046C80301D5302700E092
:103DB0002027880404D505E041463846B0476D1CED
:103DC000641EF9D52846BDE8F0814A68002A06D06D
:103DD0000A68531C0B6010704868401E48607047AA
:103DE0000A68531C0B6010707047000010B500206B
:103DF0000B4908606420FCF78FFF01200949C1F8D6
:103E0000A4016420FCF788FF0020054908606420B5
:103E1000FCF782FF01200349C1F8A40110BD000096
:103E2000A48121420080214208B501210820FEF72B
:103E300043FB4FF40050ADF8000004208DF8030060
:103E400003208DF8020069460148FDF711FB08BD0B
:103E5000000C014010B54FF400510D48FDF793FBE5
:103E600030B90C48C07B18B901200A49C8730DE06D
:103E70004FF400510648FDF786FB012806D105489E
:103E8000C07B012802D100200249C87310BD000088
:103E9000000C0140F80300201CB5FE48007B002800
:103EA00074D1FC48C07A01281CD11021FA48FDF7D2
:103EB0006AFB40B91420FCF72FFFF648007D401C38
:103EC000F44908759FE12021F448FDF75CFB0028C8
:103ED000F8D11420FCF720FFEE48007D401EED498C
:103EE000087590E1EB48C07A02281CD11021EA48FD
:103EF000FDF749FB40B91420FCF70EFFE548407D73
:103F0000401CE44948757EE12021E448FDF73BFB75
:103F10000028D7D11420FCF7FFFEDE48407D401E6C
:103F2000DC4948756FE1DB48C07A03281CD11021B9
:103F3000D948FDF728FB40B91420FCF7EDFED54821
:103F4000807D401CD34988755DE12021D348FDF771
:103F50001AFB0028B6D11420FCF7DEFECD48807D88
:103F6000401ECC4988754EE1CA48C07A0428A9D1C0
:103F70001021C948FDF707FB48B91420FCF7CCFE17
:103F8000C448C07D401CC349C8753CE10EE02021F7
:103F9000C248FDF7F8FA002894D10A20FCF7BCFECD
:103FA000BC48C07D401EBB49C8752CE1B948007BA8
:103FB000012862D1B748C07A01281CD11021B64827
:103FC000FDF7E1FA40B91420FCF7A6FEB148407EA7
:103FD000401CB049487616E12021B048FDF7D3FADD
:103FE000002890D11420FCF797FEAA48407E401E7E
:103FF000A849487607E1A748C07A02281CD11021B9
:10400000A548FDF7C0FA40B91420FCF785FEA14889
:10401000807E401C9F498876F5E020219F48FDF76F
:10402000B2FA002890D11420FCF776FE9948807EE1
:10403000401E98498876E6E09648C07A032892D1D7
:1040400010219548FDF79FFA40B91420FCF764FE53
:104050009048C07E401C8F49C876D4E020218F480C
:10406000FDF791FA002890D11420FCF755FE8948FD
:10407000C07E401E8749C876C5E08648007B02287E
:1040800093D18448C07A01281CD110218248FDF7C1
:104090007AFA40B91420FCF73FFE81488088401C22
:1040A0007F498880AFE020217C48FDF76CFA00282A
:1040B00091D11420FCF730FE79488088401E784961
:1040C0008880A0E07348C07A02281CD11021724871
:1040D000FDF759FA40B91420FCF71EFE70488079AC
:1040E000401C6F4988718EE020216C48FDF74BFA27
:1040F000002807D11420FCF70FFE69488079401E84
:10410000674988717FE06348C07A03281CD1102179
:104110006148FDF738FA40B91420FCF7FDFD60480E
:10412000C079401C5E49C8716DE020215B48FDF7F5
:104130002AFA002867D11420FCF7EEFD5848C07910
:10414000401E5749C8715EE05248C07A04281BD10E
:1041500010215148FDF717FA40B91420FCF7DCFD97
:104160004F480078401C4E4908704CE020214B48D5
:10417000FDF709FA38BB1420FCF7CEFD484800785B
:10418000401E474908703EE04248C07A05281BD1CE
:1041900010214148FDF7F7F940B91420FCF7BCFDA8
:1041A0003F484078401C3E4948702CE020213B4865
:1041B000FDF7E9F938B91420FCF7AEFD384840782E
:1041C000401E374948701EE03248C07A06281AD18E
:1041D00010213148FDF7D7F940B91420FCF79CFDB8
:1041E0002F488078401C2E4988700CE020212B48F5
:1041F000FDF7C9F938B91420FCF78EFD28488078FE
:10420000401E2749887040212448FDF7BCF988B931
:104210000A20FCF781FD00BF40212048FDF7B3F9DB
:104220000028F9D00A20FCF777FD1A48C07A401C14
:104230001849C87280211948FDF7A5F9C8B90A20A4
:10424000FCF76AFD00BF80211448FDF79CF90028A7
:10425000F9D00A20FCF760FD0E48007B401C0D4998
:1042600008730846007B032801DB00200873FDF774
:10427000F9FE0848007B88BB4FF480710748FDF7C2
:1042800082F960BB0748807948BB0A20FCF744FDEF
:1042900000BF09E0F8030020000C014000080140C5
:1042A000E80A0020A00000204FF480713C48FDF790
:1042B0006AF90028EDD00A20FCF72EFD39A2202152
:1042C0006220FDF7ADFAFDF7E9FFFFF78FFD012052
:1042D00035498870C870354988715FE026E0FFE78E
:1042E0004FF480712E48FDF74EF9E0BB2F488079DE
:1042F000012853D10A20FCF70FFD00BF4FF4807155
:104300002748FDF740F90028F8D00A20FCF704FD03
:1043100027A220216220FDF783FAFDF7BFFF0020CE
:1043200021498870C8702149887137E01E48007B98
:10433000022833D1C1011A48FDF725F998B90A209E
:10434000FCF7EAFC00BF4FF480711548FDF71BF93C
:104350000028F8D00A20FCF7DFFC164880781549C1
:104360004978144C00E019E0CDE900102378E27997
:10437000A179A088FEF7AAF90AA228213220FDF728
:104380004FFAFDF78BFF4FF47A70FCF7C5FC08A2DB
:1043900028213220FDF744FAFDF780FF1CBD000004
:1043A000000801404F4B0000F8030020A00000204F
:1043B00020200000E80A002008203E4908751E2041
:1043C0004875122088751E20C875232081F81601B3
:1043D0005A2081F8170102204876032088760220AF
:1043E000C8760A2008670020C8708870FCF78DFC2A
:1043F00048F69F4140F2CF70FEF7A6FA41F61F4102
:1044000042F20F70FEF724FB41F61F4142F20F709B
:10441000FEF76EFB4FF4E130FEF748FE4FF4E1305B
:10442000FEF79CFEFEF712FCFDF7DAF9FDF7B2FA93
:10443000FCF778FBFCF7C6FBFFF7F6FCFCF70AFD80
:10444000FDF7AAF9FDF798FEFDF728FF22211AA033
:1044500000F0E8FEFEF786FFFDF7A2F84FF4FA60E1
:10446000FCF75AFCFDF79CF8FDF786FEFDF716FFFA
:1044700001218807FEF772FB1AE000F0FDFD00F055
:10448000FFFE0C491331481EFCF7F1FBFFF7E2FC7D
:10449000FDF78EF8FFF700FD00F024F8FDF7FEFEB3
:1044A00000F0A0FA00F080FA00F006FB00F06AFBD2
:1044B000E3E70000F80300203C53543E463A6D61A8
:1044C000696E2E63094C3A25643E3E20CFB5CDB3CC
:1044D000B3F5CABCBBAFB3C9B9A63C454E443E0D0B
:1044E0000A00000008B5FC48007B00286FD1FEF7E9
:1044F0006DF8FA488078FA490988884270D0F74800
:104500008078F7490880F5480078182868DCF34877
:1045100040783C2864DCF148007A072860DCEF48EA
:10452000C0791F285CDCED4880790C2858DCEB480A
:10453000C0790090E94883798288EAA1ED48FEF7C6
:10454000C1FF1023EB4A00211420FDF74BFFE34885
:1045500080780090E14843780278E7A1E5481E3072
:10456000FEF7B0FF1023E34A1E3219460120FDF783
:1045700039FFDA48007A072831D2DFE800F0040A70
:1045800010161C222A00E0A210215020FDF748F945
:1045900025E0DFA210215020FDF742F91FE0DEA246
:1045A00010215020FDF73CF919E0DDA21021502028
:1045B000FDF736F913E0DCA210215020FDF730F9A9
:1045C0000DE0DBA210215020FDF72AF907E05FE0A3
:1045D00006E0D9A210215020FDF722F900BF00BF4C
:1045E000BD48C07A012806D1D5A23021FDF718F9BF
:1045F000FDF754FE2AE0B848C07A022807D1D0A2BD
:1046000030211920FDF70CF9FDF748FE1EE0B248F5
:10461000C07A032807D1CAA230213C20FDF700F957
:10462000FDF73CFE12E0AC48C07A042807D1C4A2D2
:1046300030215520FDF7F4F8FDF730FE06E0A648DE
:10464000C07A052802D10020A349C872BDA220214A
:104650000120FDF7E5F8A048437D027DBCA1BF48DD
:10466000FEF730FF1023BD4A30210120FDF7BAFECE
:104670009948C37D827DB6A1B948FEF723FF102378
:10468000B74A30213C20FDF7ADFEFDF707FE22E1E1
:104690009148007B01287DD1B2A20021FDF7C0F82E
:1046A000B2A200212820FDF7BBF8B1A200214620CC
:1046B000FDF7B6F8AFA200216720FDF7B1F8AEA272
:1046C00010210120FDF7ACF88348427EACA1DE301A
:1046D000FEF7F8FE1023804ADE3219462820FDF747
:1046E00081FE7D48827EA6A1E830FEF7EBFE102316
:1046F000794AE83219464620FDF774FE7648C27EB4
:104700009FA1F230FEF7DEFE1023734AF232194603
:104710006720FDF767FEFDF7C1FD9AA22021012069
:10472000FDF77EF899A220212D20FDF779F899A2B6
:1047300020215A20FDF774F8674898A1826EFC305A
:10474000FEF7C0FE10236B4AF63A30210520FDF734
:1047500049FE6148827C8AA1BE30FEF7B3FE102379
:104760005D4ABE3230212D20FDF73CFE5A48C27C06
:1047700083A1CE30FEF7A6FE1023574ACE32302159
:104780005A20FDF72FFEFDF789FD5348C07A012816
:1047900009D100E027E083A210212820FDF740F88E
:1047A000FDF77CFD97E04C48C07A022807D17DA236
:1047B00010214620FDF734F8FDF770FD8BE04648E8
:1047C000C07A032807D177A210216720FDF728F8C7
:1047D000FDF764FD7FE04048C07A04287BD10020CB
:1047E0003D49C87277E03C48007B022873D13A48C3
:1047F000C07A012806D152A20021FDF711F8FDF779
:104800004DFD42E03448C07A022807D14CA2002175
:104810002820FDF705F8FDF741FD36E02E48C07A67
:10482000032807D146A200213F20FCF7F9FFFDF73E
:1048300035FD2AE02848C07A042807D140A210217B
:104840000120FCF7EDFFFDF729FD1EE02248C07AAC
:10485000052807D13AA210211920FCF7E1FFFDF746
:104860001DFD12E01C48C07A062807D134A2102191
:104870003220FCF7D5FFFDF711FD06E01648C07A9F
:10488000072802D100201449C8721448C07900904A
:1048900012488379828813A116483C30FEF712FE35
:1048A0001023144A3C3200210120FDF79BFD0B48E8
:1048B000807800900948437802780FA10D485A305B
:1048C000FEF700FE10230B4A5A3219460120FDF76D
:1048D00089FDFDF7E3FC08BDF8030020E80A00208D
:1048E00054000020253034642D253032642D2530CD
:1048F00032640000EA050020253032643A25303267
:10490000643A253032640000D6DCC8D500000000CF
:10491000D6DCD2BB00000000D6DCB6FE00000000F2
:10492000D6DCC8FD00000000D6DCCBC400000000CF
:10493000D6DCCEE500000000D6DCC1F900000000A6
:1049400020200000B3D4D2A9CAB1BCE4000000000A
:10495000253032643A253032640000001400002013
:104960001E000020D2A9C0E00000000041000000AD
:104970004200000043000000D2A9C1BF00000000B7
:1049800025642000D6D8C1BF00000000CEC2B6C842
:1049900000000000CAAAB6C800000000256420205C
:1049A00000000000200000001CB50B48406800B16A
:1049B0001CBD0120084948600848C07B0749896E32
:1049C000CDE900100548C37C827C4F21044800F0EB
:1049D00029FC00BFECE70000300B0020F8030020AA
:1049E000E47E00083248806E48B13148816E006F25
:1049F000401E814203DA01202D49487708E02C4807
:104A0000816E006F401C814202DD002028494877FA
:104A10002748817C90F81601401C814203DD01206B
:104A20002349887709E02248817C90F81601401ECE
:104A3000814202DA00201E4988771D48C17C90F827
:104A40001701401C814203DD01201949C87709E0A4
:104A50001748C17C90F81701401E814202DA0020FD
:104A60001349C8771248407F1149897F084310498C
:104A7000C97F084348B10E48407A30B900200D493B
:104A8000086001200A49487211E00948407F70B966
:104A90000748807F58B90648C07F40B90448407A2B
:104AA000012804D103490860002001494872704779
:104AB000F8030020A081214200B5ADF50D7D21480D
:104AC000006810B10DF50D7D00BD05201D49086081
:104AD0001D48C0781C4989781B4AD27E1A4B9B7EA0
:104AE000CDE90932CDE90B101748407E1649096F10
:104AF000154A92F81721144B93F81631CDE9053277
:104B0000CDE907101048C07F0F498A7F497F0E4BBF
:104B10001B7FCDE90131CDE903200B48806E009069
:104B20000948C37C827C09490DA8FEF7CBFC002212
:104B30000DA907A0FDF7D0F8472108A000F072FBEF
:104B400000BFBFE7300B0020F8030020287F0008DB
:104B50006174747269627574657300003C53543EED
:104B6000463A6D61696E2E63094C3A25643E3E20DB
:104B7000B7A2CBCDCAFDBEDDB3C9B9A63C454E44F4
:104B80003E0D0A001CB5002001900090A44800785A
:104B9000002879D00020A3490870A349086015E0D7
:104BA000A248A1490968405C58B1A0489E490968DB
:104BB000415C9C4802780078401C9A4B18709C48D5
:104BC000815499480068401C9749086096480068DD
:104BD000984909788842E3DB00209549914A127888
:104BE00088540A4640F2411193A000F01BFB9E4AF4
:104BF0009EA18F48FEF72DFB60B99B48FBF70CFB8D
:104C00009D49086708464FF4A371026F9BA000F00E
:104C100009FB63E0944AA8A18548FEF71AFB70B926
:104C20009148FBF7F9FA944981F81601084690F883
:104C300016214FF4A571A2A000F0F4FA4EE08A4AC2
:104C4000AEA17B48FEF705FB70B98748FBF7E4FA95
:104C5000894981F81701084690F817214FF4A77188
:104C6000A8A000F0DFFA39E07F4AB5A17048FEF74E
:104C7000F0FA70B97C48FBF7CFFA7F4948760846CE
:104C8000427E4FF4A97100E0C9E0AFA000F0CAFA7B
:104C900024E0754ABBA16648FEF7DBFA60B97248AA
:104CA000FBF7BAFA744988760846827E4FF4AB71F6
:104CB000B6A000F0B7FA11E06B4AC3A15C48FEF75A
:104CC000C8FA58B96848FBF7A7FA6B49C87608468E
:104CD000C27E4FF4AD71BEA000F0A4FA01AACBA130
:104CE0005348FEF7DDFA78B99DF80400624908756B
:104CF0009DF8050048750846437D027D4FF4B1716B
:104D0000C54800F08FFA14E06A46C4A14848FEF78F
:104D1000C7FA70B99DF80000574988759DF80100E1
:104D2000C8750846C37D827D4FF4B471BE4800F05B
:104D300079FA4D4ABDA13E48FEF78BFA90BBC0A15F
:104D40004948FBF735FAA0B101204B498870BDA254
:104D500020216220FCF764FDFDF7A0FAFFF746F87A
:104D60000120B94988714FF4BA71B84800F05AFA75
:104D700050E0B7A13C48FBF71BFA00284AD00020BE
:104D80003D498870B3A220216220FCF749FDFDF760
:104D900085FA0020AC49887140F27B11AE4800F0E2
:104DA00041FA37E0FFE7304AACA12148FEF751FA5B
:104DB00080BBA3A12C48FBF7FBF9A0B101202E4931
:104DC000C870A0A220216220FCF72AFDFDF766FA38
:104DD000FFF70CF801209C4988714FF4C371A44877
:104DE00000F020FA16E09AA11F48FBF7E1F988B11C
:104DF00000202149C87097A220216220FCF710FDF5
:104E0000FDF74CFA00209049887140F28D119948C5
:104E100000F008FA002002490870064908701CBD1D
:104E20008D0000200C0000201000002048130020FE
:104E3000B00200208C0000203C53543E463A2E2EF7
:104E40005C48415244574152455C574946495C775A
:104E50006966692E63094C3A25643E3E2025733C01
:104E6000454E443E0D0A0000140300207765696733
:104E700068745F7400000000F80300203C53543E47
:104E8000463A2E2E5C48415244574152455C5749A0
:104E900046495C776966692E63094C3A25643E3E53
:104EA00020D6D8C1BFE3D0D6B5A3BA25643C454EC1
:104EB000443E0D0A0000000074656D705F740000D0
:104EC0003C53543E463A2E2E5C4841524457415280
:104ED000455C574946495C776966692E63094C3AD7
:104EE00025643E3E20CEC2B6C8E3D0D6B5A3BA25CF
:104EF000643C454E443E0D0A0000000068756D6933
:104F00005F7400003C53543E463A2E2E5C4841529A
:104F100044574152455C574946495C776966692E5A
:104F200063094C3A25643E3E20CAAAB6C8E3D0D6EF
:104F3000B5A3BA25643C454E443E0D0A000000006E
:104F40006D65645F410000003C53543E463A2E2E8E
:104F50005C48415244574152455C574946495C7749
:104F60006966692E63094C3A25643E3E20D2A9C089
:104F7000E041E3D0D6B5A3BA25643C454E443E0D8E
:104F80000A0000006D65645F420000003C53543E1F
:104F9000463A2E2E5C48415244574152455C57498F
:104FA00046495C776966692E63094C3A25643E3E42
:104FB00020D2A9C0E042E3D0D6B5A3BA25643C45CF
:104FC0004E443E0D0A0000006D65645F4300000022
:104FD0003C53543E463A2E2E5C484152445741526F
:104FE000455C574946495C776966692E63094C3AC6
:104FF00025643E3E20D2A9C0E043E3D0D6B5A3BA93
:1050000025643C454E443E0D0A0000006D6F725F02
:1050100074696D65720000003C8000086E69675F0E
:1050200074696D6572000000EC7F00086F70656E3A
:105030005F6D6F725F7274635F737461746500009B
:10504000310000004F4B0000A0000020E880000865
:105050003000000020200000A08100086F70656E05
:105060005F6E69675F7274635F737461746500007B
:105070008C8000084481000810B55B4800785B49CB
:10508000897888422ED05948807857490870574807
:105090004378027856A15948FEF714FA52488078AE
:1050A00000B35648FBF7A2F8044622465449534839
:1050B000FBF7A3F8B0B95248FBF798F890B14A480B
:1050C000407B78B90120484948730846806EC8661D
:1050D0000120087700204B4908604B49C1F8A00126
:1050E000414988704048C07800B34448FBF77EF8D7
:1050F0000446224645494148FBF77FF8B0B943488A
:10510000FBF774F890B13848407B78B901203649F4
:1051100048730846806EC866012008770020394928
:1051200008603949C1F8A0012F49C8702E48C07BDA
:10513000A8B92D48807B90B92B48806E2A49C96E4A
:1051400088420CDA01202F4908602F49C1F8A001DC
:10515000254988732E490870002023490877224882
:10516000807BB0B12B48007898B11F48407B012864
:105170000FD11D48C07B60B9002022490860224839
:10518000D0F8A00108B9012000E000201D49091F46
:1051900008601548007B78B91348807860B91248D8
:1051A000C07848B91CA220216220FCF739FBFDF72A
:1051B00075F80020194988710B48C07B90B10A48E6
:1051C000807B78B101200F4908600F49C1F8A00128
:1051D00000200549487388730D490870104908601C
:1051E0000C49087010BD0000F8030020E80A0020F8
:1051F000253032643A2530326400000086050020F4
:1052000014000020A4812142008021421E000020C1
:105210007A0000207800002020200000A00000205C
:10522000800000200FB438B505A800901248009AFD
:105230000499FEF75BF9002000900F48FAF7D6FFBB
:10524000054600BF0D48008800F040000028F9D056
:1052500000240CE00848005D0849091D088000BFD3
:105260000648008800F040000028F9D0641CAC42D9
:10527000F0D338BC5DF814FB481000200038014022
:105280001FB54F4890F8010200287DD04C4A40F2EB
:1052900095114CA0FFF7C6FF59A14948FAF788FFBE
:1052A000002872D00422464909315848FAF792FF83
:1052B000022243490E315548401DFAF78BFF022266
:1052C0003F49113151480A30FAF784FF02223C4924
:1052D00014314E480F30FAF77DFF0222384917315A
:1052E0004A481430FAF776FF022235491A31474806
:1052F0001930FAF76FFF4548FAF78EFF4449888066
:105300004248401DFAF788FF414988713F480A30FA
:10531000FAF782FF3E49C8713C480F30FAF77CFF2C
:105320003B49087039481430FAF776FF384948701D
:1053300036481930FAF770FF35498870084680788A
:105340004978334CCDE900102378E279A179A0881F
:10535000FDF7BCF92046807821464978224612782C
:105360002346DB79CDE90032CDE90210204683796E
:10537000828828A12F48FEF7A5F82046807821468C
:105380004A780978234601E018E00CE0DB79CDE9A2
:105390000031CDE9022020468379828840F2A711AE
:1053A0002548FFF73FFF0020054981F8010281F8F9
:1053B00000024FF480610248FAF7EFFE1FBD0000C3
:1053C000400B00203C53543E463A6D61696E2E639B
:1053D000094C3A25643E3E20546970733A202020DF
:1053E0002020BDD3CAD5B5BDD0A3D7BCCAB1BCE4BB
:1053F000A3BA25730D0A3C454E443E0D0A00000039
:105400005345545F43434C4B00000000D803002039
:10541000E80A0020253034642F253032642F2530EF
:10542000326420253032643A253032643A253032F5
:10543000640000009A050020A07E00082002000001
:10544000E000C000C0009003000000000000000069
:1054500000000000000000003F40000000000000CD
:1054600000003000400030004000000009000BC088
:105470003D000BC03D00090018C024407FE02240E1
:1054800031800000180024C01B000D8032400180D4
:1054900003801C4027401C80074000401000600033
:1054A00000000000000000000000000000001F805D
:1054B000204040200000402020401F8000000000CD
:1054C000090006001F800600090000000400040017
:1054D0003F80040004000000001000600000000095
:1054E00000000000040004000400040004000000A8
:1054F000000000400000000000000000002001C08B
:1055000006003800400000001F802040204020405E
:105510001F800000000010403FC00040000000005D
:1055200018C0214022402440184000001080204034
:10553000244024401B80000002000D0011003FC0E9
:10554000014000003C80244024402440238000008F
:105550001F8024402440344003800000300020009D
:1055600027C03800200000001B8024402440244035
:105570001B8000001C0022C0224022401F8000002F
:1055800000000000084000000000000000000000D3
:105590000460000000000000000004000A00110088
:1055A00020804040090009000900090009000000AE
:1055B00000004040208011000A0004001800200074
:1055C00023402400180000001F802040274029406D
:1055D0001F400000004007C039000F0001C000401C
:1055E00020403FC0244024401B8000001F802040FA
:1055F000204020403080000020403FC0204020401C
:105600001F80000020403FC024402E4030C00000DA
:1056100020403FC024402E00300000000F001080CA
:10562000204022403380020020403FC0040004009C
:105630003FC02040204020403FC02040204000008C
:105640000060202020203FC02000200020403FC0DC
:1056500024400B0030C0204020403FC0204000408C
:10566000004000C03FC03C0003C03C003FC0000001
:1056700020403FC00C4023003FC020001F8020403E
:10568000204020401F80000020403FC024402400D4
:10569000180000001F802140214020E01FA00000D2
:1056A00020403FC02440260019C0004018C02440BC
:1056B0002440224031800000300020403FC0204084
:1056C0003000000020003F80004000403F8020006C
:1056D00020003E0001C0070038002000380007C04D
:1056E0003C0007C038000000204039C0060039C027
:1056F000204000002000384007C038402000000053
:10570000304021C02640384020C00000000000008A
:105710007FE0402040200000000070000C0003806B
:10572000004000000000402040207FE0000000001A
:1057300000002000400020000000000000100010C9
:1057400000100010001000100000000040000000D9
:1057500000000000000002800540054003C000403A
:1057600020003FC00440044003800000000003808C
:105770000440044006400000000003800440244030
:105780003FC000400000038005400540034000008A
:10579000000004401FC0244024402000000002E01C
:1057A000055005500650042020403FC0044004002E
:1057B00003C000400000044027C00040000000007B
:1057C00000100010041027E00000000020403FC03F
:1057D0000140070004C00440204020403FC000407A
:1057E0000040000007C0040007C0040003C0000020
:1057F000044007C00440040003C0004000000380D0
:105800000440044003800000041007F004500440EA
:1058100003800000000003800440045007F00010E3
:10582000044007C0024004000400000000000640DD
:105830000540054004C00000000004001F80044033
:1058400000400000040007800040044007C0004002
:105850000400070004C0018006000400060001C027
:10586000070001C006000000044006C0010006C099
:10587000044000000410071004E00180060004004A
:105880000000044005C00640044000000000000085
:1058900004007BE040200000000000000000FFF05A
:1058A00000000000000040207BE004000000000039
:1058B0004000800040002000200040000000000068
:1058C00000000000000000000000000000000000D8
:1058D00000001FCC000C00000000000000000800C9
:1058E000300060000800300060000000022003FC6F
:1058F0001E20022003FC1E200220000000000E18C3
:1059000011043FFF10840C78000000000F00108489
:105910000F3800C0077818840078000000780F84E2
:1059200010C411240E9800E40084000808006800E8
:1059300070000000000000000000000000000000F7
:10594000000007E018182004400200000000400298
:105950002004181807E00000000000000240024088
:1059600001800FF0018002400240000000800080B2
:1059700000800FF800800080008000000001000D12
:10598000000E000000000000000000000000008089
:105990000080008000800080008000800000000CFB
:1059A000000C0000000000000000000000000006E5
:1059B000001800600180060018002000000007F0B9
:1059C000080810041004080807F00000000008048C
:1059D00008041FFC000400040000000000000E0C7E
:1059E00010141024104411840E0C000000000C1838
:1059F00010041104110412880C700000000000E073
:105A00000320042408241FFC0024000000001F9829
:105A1000108411041104108810700000000007F0B9
:105A200008881104110418880070000000001C0090
:105A3000100010FC13001C001000000000000E38C5
:105A400011441084108411440E3800000000070037
:105A5000088C10441044088807F000000000000083
:105A60000000030C030C0000000000000000000018
:105A7000000101060000000000000000000000809E
:105A80000140022004100808100400000220022037
:105A90000220022002200220022000000000100448
:105AA00008080410022001400080000000000E00E1
:105AB0001200100C106C10800F00000003E00C1896
:105AC00013E4142417C4082807D000000004003C85
:105AD00003C41C40074000E4001C000410041FFC29
